:020000040000FA
:040800005DEF05F0B3
:040808004EEF04F0BB
:08081800D8CF00F0016EE0CF23
:1008200002F0EACF03F0E9CF04F0D86A9EAA02D022
:100830009DBA41D3A1B231EF04F09EB039EF04F07C
:10084000F2B440EF04F09EA802D09DB802D044EF6D
:1008500004F05BA202D09D9817D0A3DBAD6E44EFED
:1008600004F0A19250C0B3FF4FC0B2FF498E44EFD5
:1008700004F09E904D50CE6E4E50CF6E44EF04F07B
:10088000F2944AB044EF04F004C0E9FF03C0EAFF69
:1008900002C0E0FF015000C0D8FF10009EBE51EF23
:1008A00004F09E9E96BEA3EF04F0808A499A110040
:1008B000090EFA6E8150526E524652447C0BC60F9E
:1008C000D8B0FA2AF96EF2EF04F0F2EF04F0F2EF8A
:1008D00004F0F2EF04F0F2EF04F0F2EF04F0F2EFC4
:1008E00004F0F2EF04F0F2EF04F0F2EF04F0F2EFB4
:1008F00004F0F3EF04F0F5EF04F0F5EF04F0F5EF9A
:1009000004F0F5EF04F0F5EF04F0F5EF04F0F5EF87
:1009100004F0F5EF04F0F5EF04F0F5EF04F0F5EF77
:1009200004F0F5EF04F0F5EF04F0F5EF04F0F5EF67
:1009300004F0F5EF04F0F5EF04F0F5EF04F0F5EF57
:1009400004F0F5EF04F083CF4BF096BA969A090EB7
:10095000FA6E8150526E524652447C0B640FD8B0EE
:10096000FA2AF96EF6EF04F003EF05F00CEF05F04C
:1009700015EF05F015EF05F017EF05F02DEF05F079
:100980002DEF05F02DEF05F02DEF05F02DEF05F023
:100990002DEF05F031EF05F033EF05F035EF05F001
:1009A00035EF05F035EF05F038EF05F03BEF05F0DA
:1009B0003EEF05F041EF05F047EF05F04FEF05F092
:1009C00055EF05F05BEF05F05BEF05F05BEF05F031
:1009D0005BEF05F05CEF05F05CEF05F05CEF05F018
:1009E0005CEF05F011008276110011004BB6819A80
:1009F0004BA6818AF00E8014516E0F0E4B145110CD
:100A0000806E827611004BB0808C4BA0809C4BB2E4
:100A1000808E4BA2809E11004BB082824BA08292AE
:100A20004BB282844BA282941100808A11004A6AE0
:100A30004BB01CEF05F04A804BB220EF05F04A8224
:100A40004BB424EF05F04A864BB628EF05F04A84F4
:100A50004BB82CEF05F04A8811004B5094EC07F08E
:100A6000110082961100828611004BC0D9FF11003F
:100A70004BC0DAFF11004BC0DEFF11004BC042F04B
:100A8000110010EE10F042504BC0E3FF110010EEC9
:100A90001CF042504BC0E3FFFF0EE31A110010EEB2
:100AA00014F042504BC0E3FF110010EE18F042501A
:100AB0004BC0E3FF110011001100828282849492E6
:100AC000949482869496808080828084818A929099
:100AD00092929294939AFF0E816E1F0E936E00EE87
:100AE00000F0EE6AEAA471EF05F0EAA671EF05F0F6
:100AF000500EB26E4F6EFE0EB36E506EC180C1824C
:100B0000C184C18696889E6AA16A9D6AA06A9F6A0E
:100B1000A26A9F8ED08E9D8E000EB16EF28CF28EE8
:100B2000826A808A929ADED910EE80F03F0E366E8D
:100B3000200E376E100E386E080E396E080E3A6EA3
:100B4000100E3B6E200E3C6E300E3D6E340E456E28
:100B5000000E1C6E000E146E040E186E220E1D6E1A
:100B6000000E156E020E196E330E1E6E000E166EFE
:100B7000010E1A6E440E1D6E800E176E000E1B6E57
:100B8000000E116E000E126E000E136E000EF86E47
:100B9000100EF76E380EF66E000E526E22EE00F05A
:100BA0000900F5CFDEFF522A000E436E22EE00F060
:100BB000526A000EDE6E522A800E5262D9EF05F0A4
:100BC000FF0EDE6E522A000E5262E0EF05F0800E3C
:100BD000446E498649A608D05BB606D049BA04D00F
:100BE000FFD9836E498A809AEAEF05F00101FE0081
:100BF00080A2018E1640CA8E1640A206A00120C90E
:100C000081C901D027A205866620C981B0F7C90431
:100C1000D01AA20320C981B0F9C902D00FA20120C5
:100C2000C981B0F9C900D004186060E8E8E838600C
:100C300020005445535446494C452E42494E000627
:100C4000001073617665646174612E62696E006084
:100C5000A20220C981C901D0D3A000B15F995D0073
:100C6000201482B0F6C8C002D0F1A20220C981C906
:100C7000D5DF0101FE0080A2018E1640CA8E16400B
:100C8000A206A00120C981C901D027A2058666203D
:100C9000C981B0F7C904D01AA20320C981B0F9C92B
:100CA00002D00FA20120C981B0F9C900D004186098
:100CB00060E8E8E8386020005445535446494C4504
:100CC0002E42494E000600107361766564617461BE
:100CD0002E62696E0060A20220C981C901D0D3A032
:100CE00000B15F995D00201482B0F6C8499E000EE5
:100CF000056E066EA1EF06F043C044F0432A435050
:100D00007F0B436E446202D0A1EF06F0446096EF81
:100D100006F022EE80F0000E526E445052C0DBFF0F
:100D2000010F43628EEF06F0A1EF06F022EE80F095
:100D3000FF0E526E445052C0DBFFFF0F43629BEF29
:100D400006F016EF07F0D89048C052F052365236EF
:100D50005236523652524818536E53364532463246
:100D60004732483248C052F0523652365236523626
:100D700052524818536E5336453246324732483243
:100D800048C052F0523652365236523652524818F5
:100D9000536E5336453246324732483248C052F0DD
:100DA000523652365236523652524818536E5336D5
:100DB000453246324732483248C052F052365236F7
:100DC0005236523652524818536E533645324632D6
:100DD0004732483248C052F05236523652365236B6
:100DE00052524818536E53364532463247324832D3
:100DF00048C052F052365236523652365252481885
:100E0000536E5336453246324732483248C052F06C
:100E1000523652365236523652524818536E533664
:100E2000453246324732483245C008F01C50202631
:100E3000145024221850282202EE80F02850EBCFC4
:100E400008F008501002F3500626F4500522000E58
:100E500007221D502126155025221950292202EE65
:100E600080F02950EBCF09F009501102F35006260B
:100E7000F4500522000E07221E502226165026226C
:100E80001A502A2202EE80F02A50EBCF0AF00A50C4
:100E90001202F3500626F4500522000E0722D890C5
:100EA00007320532D89007320532D8900732053222
:100EB000058EEAEF05F0ABB20BD0ABB40CD05BB44F
:100EC0000CD0AE500D0AD8B45B880D0A4DD8DCD4D6
:100ED000AB98AB88D9D4AE50D7D4AE500D0AD8B4A5
:100EE0005B88D2D4C00E9412080EB86E560EAF6E48
:100EF000000EB06E240EAC6E900EAB6E5B6A000EF0
:100F00005F6E616E670E606E626E5B905B82010E5B
:100F1000636E656E670E646E666E5B945B869D881D
:100F20009D8AC00EF26E12009D985BB01BD061C00E
:100F3000EAFF62C0E9FFEE6E010EEA6205D0670EBD
:100F4000E96202D000EE67F0EACF61F0E9CF62F02B
:100F50005F50616204D06050626201D05B805B923E
:100F60009D8812009D8812005BB41AD065C0EAFF0C
:100F700066C0E9FFEE6E020EEA6205D0670EE96216
:100F800002D001EE67F0EACF65F0E9CF66F063507A
:100F9000656204D06450666201D05B845B96120087
:100FA00012005BB21CD05FC0EAFF60C0E9FFEECF69
:100FB0005EF0010EEA6205D0670EE96202D000EE33
:100FC00067F0EACF5FF0E9CF60F061505F6204D074
:100FD0006250606201D05B825B905E501200000C38
:100FE0009D9A5BB61DD063C0EAFF64C0E9FFEECFF7
:100FF0005DF0020EEA6205D0670EE96202D001EEF2
:1010000067F0EACF63F0E9CF64F06550636204D023
:101010006650646201D05B865B945D509D8A1200CD
:101020009D8A000C5B985BB61200DADF5C6E7CDF99
:101030005C500D0AF8E11200808386898C8F9295AE
:10104000989B9EA1A4A7AAADB0B3B6B9BBBEC1C4BC
:10105000C6C9CBCED0D3D5D7D9DCDEE0E2E4E6E812
:10106000E9EBEDEEF0F1F3F4F5F6F7F8F9FAFBFC45
:10107000FCFDFEFEFEFFFFFFFFFFFFFFFEFEFEFD8D
:10108000FDFCFBFBFAF9F8F7F6F4F3F2F0EFEDEC08
:10109000EAE8E6E4E3E1DFDCDAD8D6D3D1CFCCCAA4
:1010A000C7C4C2BFBCBAB7B4B1AEABA8A5A29F9C1F
:1010B000999693908D8A8784817D7A7774716E6B0F
:1010C0006865625F5C595653504D4A4745423F3C04
:1010D0003A373532302D2B29262422201E1C1A188F
:1010E00016151311100E0D0C0A0908070605040346
:1010F00003020201010000000000000000010102E3
:101100000203030405060708090A0B0D0E1011134C
:101110001416181A1C1E20222426282B2D2F323498
:10112000373A3C3F4244474A4D505356585B5E6104
:0C11300065686B6E7174777A0000000037
:00000001FF
