:040000005DEF01F0BF
:040008004EEF00F0C7
:10001800D8CF00F0016FE0CF02F0EACF03F0E9CFCC
:1000280004F0D86A9EAA02D09DBA44D3A1B231EF97
:1000380000F09EB039EF00F0F2B440EF00F09EA857
:1000480002D09DB802D044EF00F05BA302D09D9887
:1000580017D0A6DBAD6E44EF00F0A19250C0B3FFFD
:100068004FC0B2FF498F44EF00F09E904D51CE6EC5
:100078004E51CF6E44EF00F0F2944AB144EF00F0D5
:1000880004C0E9FF03C0EAFF02C0E0FF015100C05D
:10009800D8FF10009EBE51EF00F09E9E96BEA3EFC3
:1000A80000F0808A499B1100010EFA6E8150526F50
:1000B800524752457C0BC60FD8B0FA2AF96EF2EFB8
:1000C80000F0F2EF00F0F2EF00F0F2EF00F0F2EFE4
:1000D80000F0F2EF00F0F2EF00F0F2EF00F0F2EFD4
:1000E80000F0F2EF00F0F2EF00F0F3EF00F0F5EFC0
:1000F80000F0F5EF00F0F5EF00F0F5EF00F0F5EFA8
:1001080000F0F5EF00F0F5EF00F0F5EF00F0F5EF97
:1001180000F0F5EF00F0F5EF00F0F5EF00F0F5EF87
:1001280000F0F5EF00F0F5EF00F0F5EF00F0F5EF77
:1001380000F0F5EF00F0F5EF00F0F5EF00F083CFF9
:100148004BF096BC969C010EFA6E8150526F524746
:1001580052457C0B640FD8B0FA2AF96EF6EF00F01E
:1001680003EF01F00CEF01F015EF01F015EF01F0CE
:1001780017EF01F02DEF01F02DEF01F02DEF01F059
:100188002DEF01F02DEF01F02DEF01F031EF01F02F
:1001980033EF01F035EF01F035EF01F035EF01F005
:1001A80038EF01F03BEF01F03EEF01F041EF01F0D5
:1001B80047EF01F04FEF01F055EF01F05BEF01F071
:1001C8005BEF01F05BEF01F05BEF01F05CEF01F03A
:1001D8005CEF01F05CEF01F05CEF01F0110082765A
:1001E800110011004BB7819A4BA7818AF00E801439
:1001F800516F0F0E4B155111806E827611004BB165
:10020800808C4BA1809C4BB3808E4BA3809E1100A9
:100218004BB182824BA182924BB382844BA38294CE
:100228001100808A11004A6B4BB11CEF01F04A8122
:100238004BB320EF01F04A834BB524EF01F04A8716
:100248004BB728EF01F04A854BB92CEF01F04A89EA
:1002580011004B5197EC03F0110082961100828631
:1002680011004BC0D9FF11004BC0DAFF11004BC081
:10027800DEFF11004BC042F0110010EE10F04251A9
:100288004BC0E3FF110010EE1CF042514BC0E3FFDE
:10029800FF0EE31A110010EE14F042514BC0E3FFB9
:1002A800110010EE18F042514BC0E3FF110011008D
:1002B800110082828284949294948286949680809B
:1002C80080828084818A929092929294939AFF0E6F
:1002D800816E1F0E936E00EE00F0EE6AEAA471EFD5
:1002E80001F0EAA671EF01F0500EB26E4F6FFE0EEC
:1002F800B36E506FC180C182C184C18696809682D8
:10030800968496889E6AA16A9D6AA06A9F6AA26A74
:100318009F8ED08E9D8E000EB16EF28CF28E826A08
:10032800808A929ADED910EE80F03F0E366F200E4A
:10033800376F100E386F080E396F080E3A6F100EAF
:100348003B6F200E3C6F300E3D6F340E456F000E34
:100358001C6F000E146F040E186F220E1D6F000E16
:10036800156F020E196F330E1E6F000E166F010EF9
:100378001A6F440E1D6F800E176F000E1B6F000E54
:10038800116F000E126F000E136F000EF86E080E3C
:10039800F76E3E0EF66E000E526F22EE00F0090068
:1003A800F5CFDEFF522B000E436F22EE00F0526BAA
:1003B800000EDE6E522B800E5263DCEF01F0FF0E52
:1003C800DE6E522B000E5263E3EF01F0800E446F95
:1003D800498749A708D05BB706D049BB04D0FFD9E5
:1003E800836E498B809AEDEF01F00101FE0080A237
:1003F800018E1640CA8E1640A206A00120C981C9E6
:1004080001D027A205866620C981B0F7C904D01A91
:10041800A20320C981B0F9C902D00FA20120C98165
:10042800B0F9C900D004186060E8E8E83860200036
:100438005445535446494C452E42494E0006001037
:1004480073617665646174612E62696E0060A202F0
:1004580020C981C901D0D3A000B15F995D002014E3
:1004680082B0F6C8C002D0F1A20220C981C9D5DF86
:100478000101FE0080A2018E1640CA8E1640A20617
:10048800A00120C981C901D027A205866620C9819B
:10049800B0F7C904D01AA20320C981B0F9C902D0A3
:1004A8000FA20120C981B0F9C900D004186060E822
:1004B800E8E8386020005445535446494C452E42DC
:1004C800494E0006001073617665646174612E629E
:1004D800696E0060A20220C981C901D0D3A000B111
:1004E8005F995D00201482B0F6C8499F000E056F21
:1004F800066FA4EF02F043C044F0432B43517F0B37
:10050800436F446302D0A4EF02F0446199EF02F014
:1005180022EE80F0000E526F445152C0DBFF010FF3
:10052800436391EF02F0A4EF02F022EE80F0FF0E99
:10053800526F445152C0DBFFFF0F43639EEF02F03E
:1005480019EF03F0D89048C052F05237523752375B
:10055800523752534819536F53374533463347334D
:10056800483348C052F052375237523752375253F5
:100578004819536F5337453346334733483348C0D8
:1005880052F0523752375237523752534819536F35
:100598005337453346334733483348C052F0523710
:1005A80052375237523752534819536F53374533DE
:1005B80046334733483348C052F0523752375237E0
:1005C800523752534819536F5337453346334733DD
:1005D800483348C052F05237523752375237525385
:1005E8004819536F5337453346334733483348C068
:1005F80052F0523752375237523752534819536FC5
:100608005337453346334733483348C052F052379F
:1006180052375237523752534819536F533745336D
:1006280046334733483345C008F01C51202714513E
:1006380024231851282302EE80F02851EBCF08F02C
:1006480008511003F3500627F4500523000E072322
:100658001D512127155125231951292302EE80F018
:100668002951EBCF09F009511103F3500627F45033
:100678000523000E07231E512227165126231A513F
:100688002A2302EE80F02A51EBCF0AF00A51120316
:10069800F3500627F4500523000E0723D89007339C
:1006A8000533D89007330533D89007330533058FC2
:1006B800EDEF01F0ABB20BD0ABB40CD05BB50CD006
:1006C800AE500D0AD8B45B890D0A4DD8D9D4AB9871
:1006D800AB88D6D4AE50D4D4AE500D0AD8B45B890A
:1006E800CFD4C00E9412080EB86E560EAF6E000E20
:1006F800B06E240EAC6E900EAB6E5B6B000E5F6F2F
:10070800616F000E606F626F5B915B83010E636FB8
:10071800656F000E646F666F5B955B879D889D8A29
:10072800C00EF26E12009D985BB11BD061C0EAFF4B
:1007380062C0E9FFEE6E010EEA6205D0000EE962C2
:1007480002D000EE00F0EACF61F0E9CF62F05F512D
:10075800616304D06051626301D05B815B939D88C3
:1007680012009D8812005BB51AD065C0EAFF66C00A
:10077800E9FFEE6E020EEA6205D0000EE96202D0D1
:1007880001EE00F0EACF65F0E9CF66F063516563EA
:1007980004D06451666301D05B855B971200120038
:1007A8005BB31CD05FC0EAFF60C0E9FFEECF5EF02C
:1007B800010EEA6205D0000EE96202D000EE00F0F8
:1007C800EACF5FF0E9CF60F061515F6304D0625116
:1007D800606301D05B835B915E511200000C9D9AAF
:1007E8005BB71DD063C0EAFF64C0E9FFEECF5DF0E0
:1007F800020EEA6205D0000EE96202D001EE00F0B6
:10080800EACF63F0E9CF64F06551636304D06651C1
:10081800646301D05B875B955D519D8A12009D8A58
:10082800000C5B995BB71200DADF5C6F7CDF5C5110
:100838000D0AF8E11200808386898C8F9295989B27
:100848009EA1A4A7AAADB0B3B6B9BBBEC1C4C6C960
:10085800CBCED0D3D5D7D9DCDEE0E2E4E6E8E9EBCD
:10086800EDEEF0F1F3F4F5F6F7F8F9FAFBFCFCFD20
:10087800FEFEFEFFFFFFFFFFFFFFFEFEFEFDFDFC8D
:10088800FBFBFAF9F8F7F6F4F3F2F0EFEDECEAE82F
:10089800E6E4E3E1DFDCDAD8D6D3D1CFCCCAC7C4EB
:1008A800C2BFBCBAB7B4B1AEABA8A5A29F9C99967B
:1008B80093908D8A8784817D7A7774716E6B686571
:1008C800625F5C595653504D4A4745423F3C3A3760
:1008D8003532302D2B29262422201E1C1A181615D5
:1008E8001311100E0D0C0A0908070605040303026C
:1008F80002010100000000000000000101020203E3
:10090800030405060708090A0B0D0E101113141627
:10091800181A1C1E20222426282B2D2F3234373A51
:100928003C3F4244474A4D505356585B5E616568A8
:0A0938006B6E7174777A0000000006
:020000040030CA
:0300010002181EC4
:020005008180F8
:060008000FC00FE00F40E5
:00000001FF
